:100000000C945D000C94B9050C9492050C94850039
:100010000C9485000C9485000C9485000C9485004C
:100020000C9485000C9485000C9485000C9485003C
:100030000C9485000C9485000C9485000C9485002C
:100040000C9448050C9485000C9406060C94E0056D
:100050000C9485000C9485000C9485000C9485000C
:100060000C9438060C948500000000002400270042
:100070002A0000000000250028002B0004040404CE
:100080000404040402020202020203030303030342
:10009000010204081020408001020408102001021F
:1000A00004081020000000080002010000030407FB
:1000B0000000000000000000570711241FBECFEF12
:1000C000D8E0DEBFCDBF22E0A8E5B1E001C01D92BF
:1000D000A73DB207E1F711E0A0E0B1E0E8E4F2E10A
:1000E00002C005900D92A835B107D9F710E0CDE513
:1000F000D0E004C02197FE010E941C09CC35D10735
:10010000C9F70E94B2070C9422090C94000090E0F9
:10011000FC01EC55FF4F2491FC01E057FF4F349157
:10012000FC01E458FF4FE491EE23C9F0222339F09B
:10013000233001F1A8F4213019F1223029F1F0E047
:10014000EE0FFF1FEE58FF4FA591B4918FB7F894B3
:10015000EC91611126C030953E233C938FBF0895EA
:100160002730A9F02830C9F0243049F78091800069
:100170008F7D03C0809180008F7780938000DFCFD8
:1001800084B58F7784BDDBCF84B58F7DFBCF809125
:10019000B0008F778093B000D2CF8091B0008F7D78
:1001A000F9CF3E2BDACF3FB7F894809116029091A9
:1001B0001702A0911802B091190226B5A89B05C09C
:1001C0002F3F19F00196A11DB11D3FBFBA2FA92FD6
:1001D000982F8827BC01CD01620F711D811D911DD3
:1001E00042E0660F771F881F991F4A95D1F708953F
:1001F0008F929F92AF92BF92CF92DF92EF92FF9237
:100200004B015C010E94D3006B017C010E94D30072
:100210006C197D098E099F09683E7340810591051F
:10022000A8F321E0821A9108A108B10888EEC80E4F
:1002300083E0D81EE11CF11C81149104A104B104D7
:1002400029F7FF90EF90DF90CF90BF90AF909F90F5
:100250008F900895089508950895AF92BF92CF9218
:10026000DF92EF92FF920F931F93CF93DF936C0176
:100270007B018B01040F151FEB015E01AE18BF0857
:10028000C017D10759F06991D601ED91FC91019009
:10029000F081E02DC6010995892B79F7C501DF9121
:1002A000CF911F910F91FF90EF90DF90CF90BF9073
:1002B000AF900895FC01538D448D252F30E0842F9D
:1002C00090E0821B930B541710F0CF96089501977E
:1002D0000895FC01918D828D981761F0A28DAE0F6B
:1002E000BF2FB11D5D968C91928D9F5F9F73928FF2
:1002F00090E008958FEF9FEF0895FC01918D828D1E
:10030000981731F0828DE80FF11D858D90E00895EA
:100310008FEF9FEF0895FC01918D228D892F90E042
:10032000805C9F4F821B91098F73992708958AE102
:1003300092E00E948B0121E0892B09F420E0822FBA
:10034000089580E090E0892B29F00E9497018111A7
:100350000C9400000895FC01A48DA80FB92FB11DC5
:10036000A35ABF4F2C91848D90E001968F739927EB
:10037000848FA689B7892C93A089B1898C918370C9
:1003800080648C93938D848D981306C00288F389C2
:10039000E02D80818F7D80830895EF92FF920F93EF
:1003A0001F93CF93DF93EC0181E0888F9B8D8C8D21
:1003B00098131AC0E889F989808185FF15C09FB715
:1003C000F894EE89FF896083E889F98980818370D8
:1003D000806480839FBF81E090E0DF91CF911F9187
:1003E0000F91FF90EF900895F62E0B8D10E00F5FA8
:1003F0001F4F0F731127E02E8C8D8E110CC00FB67E
:1004000007FCFACFE889F989808185FFF5CFCE0115
:100410000E94AB01F1CFEB8DEC0FFD2FF11DE35AE4
:10042000FF4FF0829FB7F8940B8FEA89FB89808198
:100430008062CFCFCF93DF93EC01888D8823B9F012
:10044000AA89BB89E889F9898C9185FD03C08081DF
:1004500086FD0DC00FB607FCF7CF8C9185FFF2CF5C
:10046000808185FFEDCFCE010E94AB01E9CFDF9106
:10047000CF9108952091C301260F3327331F2132D6
:100480003105ECF42091E701FC0190E080E024309C
:1004900069F082E00895A091C3012191AC014D550E
:1004A0005E4FA40FB52FB11D2C930196861798F3BC
:1004B0008091C301680F6093C30180E0089581E0DB
:1004C00008951092E70181E08093E9011092E8011C
:1004D00061E082E10E94870061E083E10E94870081
:1004E000E9EBF0E080818E7F808380818D7F808347
:1004F00088E48093B80085E48093BC000895CF938E
:10050000DF9391E09093A2018823B9F0C091B800E5
:10051000D091BA008091BC008A7B8093BC0060E0DF
:1005200082E10E94870060E083E10E9487000E94D0
:100530006102D093BA00C093B800DF91CF910895C3
:100540000895E091140280911302E81730F4F0E06E
:10055000E358FE4F808190E008958FEF9FEF08955C
:1005600090911402809113022FEF3FEF981748F4F7
:10057000E92FF0E0E358FE4F208130E09F5F909339
:100580001402C90108958091130290911402891BED
:10059000990B0895CF92DF92EF92FF920F931F93E2
:1005A000CF93DF937C01CB018A0120917C01222330
:1005B00089F0EB016B01C40ED51ECC15DD0569F089
:1005C0006991D701ED91FC910190F081E02DC70177
:1005D0000995F3CF642F0E943A02C801DF91CF91B1
:1005E0001F910F91FF90EF90DF90CF900895CF93E0
:1005F000DF931F92CDB7DEB7698320917C01222360
:10060000F9F020911102203258F021E030E0FC0195
:100610003383228390E080E00F90DF91CF910895A3
:1006200080911202E82FF0E0E45AFE4F9981908306
:100630008F5F809312028093110281E090E0ECCFF3
:1006400061E0CE0101960E943A02F7CFCF92DF928D
:10065000EF92FF920F931F93CF93DF93FC01C4811E
:1006600021E020937C01C0935B0110921202109252
:1006700011028385682B87EB92E00E94F702D091EC
:100680001102D13208F092C00E94D3006B017C01AC
:100690008091E701811165C082E08093E70181E0EC
:1006A0008093E9018FEF8093E60110920B02D093C3
:1006B0000A02ACE5B1E0EAEEF1E080E0D81385C0D3
:1006C00010920C0280910C02CC0FC82BC0930C022C
:1006D0008091E801813009F07CC01092E8010E940D
:1006E000D3006B017C0180910C028093BB00809150
:1006F0009E0190919F01A091A001B091A101892B31
:100700008A2B8B2B99F00E94D30000919E011091AF
:100710009F012091A0013091A1016C197D098E09E2
:100720009F090617170728073907E0F18091BC00D9
:1007300083FDD9CF85EC8093BC000E94D3006B0170
:100740007C018091E701823009F445C08091E60187
:100750008F3F61F18091E601803241F18091E601A5
:1007600025C080919E0190919F01A091A001B09120
:10077000A101892B8A2B8B2B09F48ACF0E94D300ED
:1007800000919E0110919F012091A0013091A10143
:100790006C197D098E099F09061717072807390765
:1007A00008F076CF80919D010E947F021092120284
:1007B0001092110210927C01DF91CF911F910F9145
:1007C000FF90EF90DF90CF9008959D9191938F5F70
:1007D00075CF85EEB0CF80919E0190919F01A09141
:1007E000A001B091A101892B8A2B8B2B09F4A9CFF1
:1007F0000E94D30000919E0110919F012091A001C1
:100800003091A1016C197D098E099F090617170700
:100810002807390708F095CFC5CF089590E080E00C
:1008200008950F931F93CF938C01C62F0E94260328
:100830006C2F6460C8010E9426036C2F6B7FC80177
:100840000E94260383EC90E00197F1F7CF911F916E
:100850000F9108950F931F93CF93DF938C01D62FA1
:10086000C42F607F642B0E94110480E1D89FB001E7
:1008700011246C2BC801DF91CF911F910F910C9423
:10088000110441E00E942A0481E090E00895FB01F8
:1008900001900020E9F73197AF01461B570BDC01AF
:1008A000ED91FC910280F381E02D09948F929F924B
:1008B000AF92BF92CF92DF92EF92FF92CF93DF93EE
:1008C000CDB7DEB7A1970FB6F894DEBF0FBECDBF90
:1008D000F8942FB7F8948091C3029091C402A0912C
:1008E000C502B091C6022FBF4091C7025091C80205
:1008F0006091C9027091CA02841B950BA60BB70BBD
:10090000843F9140A105B10508F45EC02FB7F8946B
:100910008091C3029091C402A091C502B091C60219
:100920002FBF8093C7029093C802A093C902B093CF
:10093000CA028091590190915A01019690935A01EF
:100940008093590164E371E08AE192E00E944704D8
:10095000C0905901D0905A010D2C000CEE08FF08F0
:10096000F7FE43C06DE28AE192E00E94CD012227AA
:100970003327A9012C193D094E095F0919A2CE019F
:1009800081967C019AE0892E912CA12CB12CCA0170
:10099000B901A50194010E94FA08605DF701629314
:1009A0007F01211531054105510589F7E114F10455
:1009B00029F0B7018AE192E00E94470465E471E002
:1009C0008AE192E00E944704A1960FB6F894DEBF38
:1009D0000FBECDBFDF91CF91FF90EF90DF90CF9012
:1009E000BF90AF909F908F900895A701960119A294
:1009F000CE0181967C018AE0882E912CA12CB12C0D
:100A0000CA01B901A50194010E94FA08605DF701CD
:100A100062937F01211531054105510589F7C6CF44
:100A200085ED8093BC0080919E0190919F01A091E3
:100A3000A001B091A1010796A11DB11D23E0B695BB
:100A4000A795979587952A95D1F72091BC0024FD0D
:100A500003C01092E701089540919E0150919F01BB
:100A60006091A0017091A101452B462B472B69F3A2
:100A70000097A105B10541F02AE22A95F1F700C0DF
:100A80000197A109B109E1CF80919D010C947F02EA
:100A90001F920F920FB60F9211242F933F938F93B3
:100AA0009F93AF93BF938091C3029091C402A09192
:100AB000C502B091C6023091150223E0230F2D37F5
:100AC00058F50196A11DB11D209315028093C30214
:100AD0009093C402A093C502B093C60280911602FF
:100AE00090911702A0911802B09119020196A11DD0
:100AF000B11D8093160290931702A0931802B09331
:100B00001902BF91AF919F918F913F912F910F90BB
:100B10000FBE0F901F90189526E8230F0296A11D77
:100B2000B11DD2CF1F920F920FB60F9211242F93A7
:100B30003F934F935F936F937F938F939F93AF9365
:100B4000BF93EF93FF93E0910201F09103010995A8
:100B5000FF91EF91BF91AF919F918F917F916F9195
:100B60005F914F913F912F910F900FBE0F901F906B
:100B700018951F920F920FB60F9211242F933F9347
:100B80004F935F936F937F938F939F93AF93BF9395
:100B9000EF93FF93E0910001F09101010995FF911E
:100BA000EF91BF91AF919F918F917F916F915F91E5
:100BB0004F913F912F910F900FBE0F901F9018955E
:100BC0001F920F920FB60F9211242F933F934F93C2
:100BD0005F936F937F938F939F93AF93BF93EF93A5
:100BE000FF938AE192E00E94AB01FF91EF91BF91E8
:100BF000AF919F918F917F916F915F914F913F91B5
:100C00002F910F900FBE0F901F9018951F920F926B
:100C10000FB60F9211242F938F939F93EF93FF930F
:100C2000E0912A02F0912B028081E0913002F09154
:100C3000310282FD1BC09081809133028F5F8F73E0
:100C400020913402821741F0E0913302F0E0E65E39
:100C5000FD4F958F80933302FF91EF919F918F917C
:100C60002F910F900FBE0F901F9018958081F4CF99
:100C70001F920F920FB60F9211242F933F934F9311
:100C80005F936F937F938F939F93AF93BF93EF93F4
:100C9000FF938091B900887F803609F44AC0F0F54F
:100CA000883209F4A7C018F5803109F49BC0B8F464
:100CB000882309F4F9C0883009F494C0FF91EF91BA
:100CC000BF91AF919F918F917F916F915F914F9164
:100CD0003F912F910F900FBE0F901F901895883164
:100CE00009F488C0803251F78093E60114C0803443
:100CF00009F49DC040F48033B9F38833F9F680934A
:100D0000E60185ECB0C0803509F485C0883509F46A
:100D100096C0883499F60E941005D0CF883909F41E
:100D20008CC038F5883729F050F4883611F08037B8
:100D300029F683E08093E7011092E50157C08838D7
:100D400009F47BC0803919F0803809F0B7CF809161
:100D5000E501803208F071C0E091E50181E08E0F7D
:100D60008093E5018091BB00F0E0EB53FE4F808360
:100D70003DC0803B39F0E0F4803A09F479C0883A0C
:100D800009F09CCF84E08093E7011092C401109297
:100D9000C301E0910F02F091100209958091C30107
:100DA00081110FC081E08093C3011092A30109C09B
:100DB000803C09F4A6CF883C09F4A3CF883B09F016
:100DC0007DCFE091C40181E08E0F8093C401F0E0FB
:100DD000ED55FE4F80818093BB009091C4018091BE
:100DE000C30129C080910C028093BB0085EC8093E5
:100DF000BC0064CF90910B0280910A02981758F5BD
:100E0000E0910B0281E08E0F80930B02F0E0E6513F
:100E1000FE4F8081E9CFE0910B0281E08E0F80933D
:100E20000B028091BB00F0E0E651FE4F8083909171
:100E30000B0280910A029817C8F285E8D8CFE0919A
:100E40000B0281E08E0F80930B028091BB00F0E0DB
:100E5000E651FE4F80838091E90181115CCF81E0F2
:100E60008093E80184EA8093BC001092E70126CFCA
:100E700085EC8093BC001092E7018091E5018032FF
:100E800030F4E091E501F0E0EB53FE4F1082609109
:100E9000E50170E0E0910D02F0910E0285EC91E029
:100EA00009951092E5010ACF1092E60134CFEAE1EC
:100EB000F2E01382128288EE93E0A0E0B0E0848337
:100EC0009583A683B78328E031E03183208325EC26
:100ED00030E03587248724EC30E03787268720EC04
:100EE00030E0318B208B21EC30E0338B228B22ECF5
:100EF00030E0358B248B26EC30E0378B268B118E3F
:100F0000128E138E148EE7EBF2E01382128284832A
:100F10009583A683B7838AE191E091838083EBEC8C
:100F2000F2E0138212828CE291E09183808387E267
:100F3000848380E1818782E0828713862FB7F894CB
:100F40008091C3029091C402A091C502B091C602E3
:100F50002FBF8093C7029093C802A093C902B09399
:100F6000CA020895789484B5826084BD84B5816096
:100F700084BD85B5826085BD85B5816085BD809164
:100F80006E00816080936E001092810080918100DC
:100F900082608093810080918100816080938100D4
:100FA000809180008160809380008091B100846096
:100FB0008093B1008091B00081608093B0008091F7
:100FC0007A00846080937A0080917A0082608093B6
:100FD0007A0080917A00816080937A0080917A0013
:100FE000806880937A001092C100E0912A02F0910B
:100FF0002B0282E08083E0912602F091270210828A
:10100000E0912802F091290280E18083109232025F
:10101000E0912E02F0912F0286E08083E0912C0275
:10102000F0912D02808180618083E0912C02F0910B
:101030002D02808188608083E0912C02F0912D0246
:10104000808180688083E0912C02F0912D02808164
:101050008F7D8083E2E9F0E02491EEE7F0E0849177
:101060008823C1F090E0880F991FFC01E859FF4FD9
:10107000C591D491FC01EE58FF4FA591B4919FB753
:10108000F8943881822F809583238883EC91E22B1A
:10109000EC939FBF86E594E090930101809300015B
:1010A00080916900836080936900E89A109214022D
:1010B0001092130210921202109211020E94610209
:1010C0008AE291E09093100280930F028BE291E00C
:1010D00090930E0280930D021092D0028091D5025F
:1010E000823018F098E09093D0028093D30262E3AC
:1010F00070E080E090E00E94F8006091D6028BECF6
:1011000092E00E94260368EE73E080E090E00E9487
:10111000F80060E38BEC92E00E941104CBE4D6E48B
:10112000CE010197F1F760E38BEC92E00E9411048D
:101130002197F1F760E38BEC92E00E94110483E5C4
:1011400092E00197F1F760E28BEC92E00E941104CB
:101150006091D002606240E08BEC92E00E942A0431
:1011600084E08093D10240E06CE08BEC92E00E943E
:101170002A0440E061E08BEC92E00E942A04CBE379
:10118000DFE1CE010197F1F782E08093D20240E0E7
:1011900066E08BEC92E00E942A0440E062E08BEC77
:1011A00092E00E942A042197F1F788E08093D6020A
:1011B00060E08BEC92E00E94260340E060E88BEC5C
:1011C00092E00E942A0468E471E08BEC92E00E94B5
:1011D0004704C0E0D0E064E670E080E090E00E9468
:1011E000F8002097C1F30E9497018823A1F30E9481
:1011F0000000F1CFA1E21A2EAA1BBB1BFD010DC0FE
:10120000AA1FBB1FEE1FFF1FA217B307E407F507B6
:1012100020F0A21BB30BE40BF50B661F771F881F92
:10122000991F1A9469F760957095809590959B0128
:10123000AC01BD01CF010895EE0FFF1F0590F491A1
:08124000E02D0994F894FFCFA2
:101248002C012C0100000000CD012D015A011A02C9
:101258008B0169017D0100000000F702CA020E043B
:10126800A002C302B002A1020000000041042D0147
:101278000E040D04427574746F6E2070726573737A
:1012880065642120000D0A00204469676974616C57
:08129800205363616C65000046
:00000001FF
