:020000040000FA
:100000000C9462000C948C090C9465090C948A0081
:100010000C948A000C948A000C948A000C948A0038
:100020000C948A000C948A000C948A000C948A0028
:100030000C948A000C948A000C948A000C948A0018
:100040000C941B090C948A000C94D9090C94B309E4
:100050000C948A000C948A000C948A000C948A00F8
:100060000C940B0A0C948A00000000002400270066
:100070002A0000000000250028002B0000000000DE
:1000800023002600290004040404040404040202DA
:100090000202020203030303030301020408102007
:1000A0004080010204081020010204081020000012
:1000B0000008000201000003040700000000000027
:1000C00000002A0B11241FBECFEFD8E0DEBFCDBF4A
:1000D00011E0A0E0B1E0EAE0F8E202C005900D9284
:1000E000A23DB107D9F723E0A2EDB1E001C01D9216
:1000F000AA39B207E1F710E0C2E6D0E004C02197C8
:10010000FE010E94FD13C136D107C9F70E94B60B4C
:100110000C9403140C9400002F923F924F925F9224
:100120006F927F928F929F92AF92BF92CF92DF9207
:10013000EF92FF920F931F93CF93DF93CDB7DEB76C
:1001400060970FB6F894DEBF0FBECDBF1C018C01C7
:100150000C5F1F4F188B0F87B0E0A0E0EF85F88988
:1001600000811181CD01FA87E9876801110FEE083E
:10017000FF08CB86DC86ED86FE8646015701841A91
:10018000950AA60AB70AEE24FF248701E818F908A1
:100190000A091B09ED82FE820F831887E985FA851B
:1001A0007290629052904290FA87E98773016201DF
:1001B000C41AD50AE60AF70AF7FE08C0F094E094DC
:1001C000D094C094C11CD11CE11CF11C89829A827C
:1001D000AB82BC82B7FE08C00D811E812F8138859D
:1001E00009831A832B833C8309811A812B813C81EB
:1001F0000C151D052E053F0544F4E985FA8544825A
:10020000558266827782019748F6FC013196EE0F9F
:10021000FF1FEE0FFF1F9F01220D331DCB84DC84D7
:10022000ED84FE84F901C082D182E282F3821196CC
:100230000F8518890C5F1F4F188B0F87A430B105ED
:1002400009F08CCF60960FB6F894DEBF0FBECDBF1D
:10025000DF91CF911F910F91FF90EF90DF90CF90A2
:10026000BF90AF909F908F907F906F905F904F90D6
:100270003F902F900895833081F028F4813099F0D9
:100280008230A9F008958730A9F08830C9F0843011
:10029000B1F4809180008F7D03C0809180008F77C2
:1002A00080938000089584B58F7784BD089584B5C8
:1002B0008F7DFBCF8091B0008F778093B000089541
:1002C0008091B0008F7DF9CFCF93DF93282F30E05E
:1002D000F901E255FF4F8491F901E656FF4FD491A1
:1002E000F901EA57FF4FC491CC23A1F081110E947C
:1002F0003B01EC2FF0E0EE0FFF1FE458FF4FA591FC
:10030000B491EC91ED2381E090E009F480E0DF917D
:10031000CF91089580E090E0FACF1F93CF93DF93C1
:10032000282F30E0F901E255FF4F8491F901E6569C
:10033000FF4FD491F901EA57FF4FC491CC23A9F0A4
:10034000162F81110E943B01EC2FF0E0EE0FFF1FF2
:10035000EE58FF4FA591B4918FB7F894EC9111111D
:1003600008C0D095DE23DC938FBFDF91CF911F9122
:100370000895DE2BF8CFCF93DF9390E0FC01E65693
:10038000FF4F24918A579F4FFC0184918823C9F025
:1003900090E0880F991FFC01E859FF4FA591B49197
:1003A000FC01EE58FF4FC591D49161110DC09FB76C
:1003B000F8948C91209582238C938881282328831C
:1003C0009FBFDF91CF910895623051F49FB7F894A9
:1003D0003C91822F809583238C93E8812E2BEFCF45
:1003E0008FB7F894EC912E2B2C938FBFEACF3FB7A9
:1003F000F8948091C0029091C102A091C202B09184
:10040000C30226B5A89B05C02F3F19F00196A11D78
:10041000B11D3FBFBA2FA92F982F8827BC01CD014E
:10042000620F711D811D911D42E0660F771F881FAD
:10043000991F4A95D1F708958F929F92AF92BF92DC
:10044000CF92DF92EF92FF924B015C010E94F70185
:100450006B017C010E94F7016C197D098E099F09CF
:10046000683E734081059105A8F321E0821A910846
:10047000A108B10888EEC80E83E0D81EE11CF11C6B
:1004800081149104A104B10429F7FF90EF90DF904B
:10049000CF90BF90AF909F908F9008952FB7F89412
:1004A0006091BC027091BD028091BE029091BF022A
:1004B0002FBF0895089508950895AF92BF92CF92E7
:1004C000DF92EF92FF920F931F93CF93DF936C0114
:1004D0007B018B01040F151FEB015E01AE18BF08F5
:1004E000C017D10759F06991D601ED91FC910190A7
:1004F000F081E02DC6010995892B79F7C501DF91BF
:10050000CF911F910F91FF90EF90DF90CF90BF9010
:10051000AF900895FC01538D448D252F30E0842F3A
:1005200090E0821B930B541710F0CF96089501971B
:100530000895FC01918D828D981761F0A28DAE0F08
:10054000BF2FB11D5D968C91928D9F5F9F73928F8F
:1005500090E008958FEF9FEF0895FC01918D828DBB
:10056000981731F0828DE80FF11D858D90E0089588
:100570008FEF9FEF0895FC01918D228D892F90E0E0
:10058000805C9F4F821B91098F73992708958CEC93
:1005900092E00E94BB0221E0892B09F420E0822F27
:1005A000089580E090E0892B29F00E94C702811114
:1005B0000C9400000895FC01A48DA80FB92FB11D63
:1005C000A35ABF4F2C91848D90E001968F73992789
:1005D000848FA689B7892C93A089B1898C91837067
:1005E00080648C93938D848D981306C00288F38960
:1005F000E02D80818F7D80830895EF92FF920F938D
:100600001F93CF93DF93EC0181E0888F9B8D8C8DBE
:1006100098131AC0E889F989808185FF15C09FB7B2
:10062000F894EE89FF896083E889F9898081837075
:10063000806480839FBF81E090E0DF91CF911F9124
:100640000F91FF90EF900895F62E0B8D10E00F5F45
:100650001F4F0F731127E02E8C8D8E110CC00FB61B
:1006600007FCFACFE889F989808185FFF5CFCE01B3
:100670000E94DB02F1CFEB8DEC0FFD2FF11DE35A51
:10068000FF4FF0829FB7F8940B8FEA89FB89808136
:100690008062CFCFCF93DF93EC01888D8823B9F0B0
:1006A000AA89BB89E889F9898C9185FD03C080817D
:1006B00086FD0DC00FB607FCF7CF8C9185FFF2CFFA
:1006C000808185FFEDCFCE010E94DB02E9CFDF9173
:1006D000CF91089520913C02260F3327331F2132FA
:1006E0003105ECF420916002FC0190E080E02430C0
:1006F00069F082E00895A0913C022191AC01445E32
:100700005D4FA40FB52FB11D2C930196861798F35A
:1007100080913C02680F60933C0280E0089581E084
:1007200008951092600281E080936202109261024B
:1007300061E082E10E948D0161E083E10E948D0110
:10074000E9EBF0E080818E7F808380818D7F8083E4
:1007500088E48093B80085E48093BC000895CF932B
:10076000DF9391E090931B028823B9F0C091B80009
:10077000D091BA008091BC008A7B8093BC0060E07D
:1007800082E10E948D0160E083E10E948D010E9460
:100790009103D093BA00C093B800DF91CF91089530
:1007A0000895E0918D0280918C02E81730F4F0E01A
:1007B000EA50FE4F808190E008958FEF9FEF0895FB
:1007C00090918D0280918C022FEF3FEF981748F4A3
:1007D000E92FF0E0EA50FE4F208130E09F5F9093D8
:1007E0008D02C901089580918C0290918D02891B20
:1007F000990B0895CF92DF92EF92FF920F931F9380
:10080000CF93DF937C01CB018A012091F501222354
:1008100089F0EB016B01C40ED51ECC15DD0569F026
:100820006991D701ED91FC910190F081E02DC70114
:100830000995F3CF642F0E946A03C801DF91CF911D
:100840001F910F91FF90EF90DF90CF900895CF937D
:10085000DF931F92CDB7DEB769832091F501222384
:10086000F9F020918A02203258F021E030E0FC01BA
:100870003383228390E080E00F90DF91CF91089541
:1008800080918B02E82FF0E0EB52FE4F998190832C
:100890008F5F80938B0280938A0281E090E0ECCF9F
:1008A00061E0CE0101960E946A03F7CFCF92DF92FA
:1008B000EF92FF920F931F93CF93DF93FC01C481BC
:1008C00021E02093F501C093D40110928B02109285
:1008D0008A028385682B89E693E00E942704D091E1
:1008E0008A02D13208F092C00E94F7016B017C01AC
:1008F00080916002811165C082E08093600281E096
:10090000809362028FEF80935F0210928402D093F3
:100910008302A5EDB1E0E3E6F2E080E0D81385C004
:100920001092850280918502CC0FC82BC09385025E
:1009300080916102813009F07CC0109261020E94B6
:10094000F7016B017C01809185028093BB0080914F
:10095000170290911802A0911902B0911A02892BE6
:100960008A2B8B2B99F00E94F701009117021091AE
:1009700018022091190230911A026C197D098E0912
:100980009F090617170728073907E0F18091BC0077
:1009900083FDD9CF85EC8093BC000E94F7016B01E9
:1009A0007C0180916002823009F445C080915F0231
:1009B0008F3F61F180915F02803241F180915F024F
:1009C00025C08091170290911802A0911902B09150
:1009D0001A02892B8A2B8B2B09F48ACF0E94F701EC
:1009E00000911702109118022091190230911A02F9
:1009F0006C197D098E099F09061717072807390703
:100A000008F076CF809116020E94AF0310928B02FD
:100A100010928A021092F501DF91CF911F910F91F0
:100A2000FF90EF90DF90CF9008959D9191938F5F0D
:100A300075CF85EEB0CF8091170290911802A091EA
:100A40001902B0911A02892B8A2B8B2B09F4A9CF9A
:100A50000E94F701009117021091180220911902CB
:100A600030911A026C197D098E099F090617170724
:100A70002807390708F095CFC5CF88E080938C030D
:100A800060E081E893E00C945604089590E080E0E3
:100A900008950F931F930E944E02009175031091C9
:100AA00076032091770330917803601B710B820BE2
:100AB000930B683C71058105910568F00E944E0218
:100AC0006093750370937603809377039093780314
:100AD00081E08093D3011F910F9108950F931F938D
:100AE000CF938C01C62F0E9456046C2F6460C801FE
:100AF0000E9456046C2F6B7FC8010E94560483EC41
:100B000090E00197F1F7CF911F910F9108950F9306
:100B10001F93CF93DF938C01D62FC42F607F642B5C
:100B20000E946E0580E1D89FB00111246C2BC80192
:100B3000DF91CF911F910F910C946E05CF93DF93AE
:100B4000CDB7DEB728970FB6F894DEBF0FBECDBF86
:100B500098E0E8E0F1E0DE01119601900D929A959F
:100B6000E1F790918903961708F46FEF262F30E094
:100B7000220F331F41E050E04C0F5D1F240F351F43
:100B8000F9016081680F606840E081E893E0289691
:100B90000FB6F894DEBF0FBECDBFDF91CF910C949E
:100BA000870541E00E94870581E090E00895FB0100
:100BB00001900020E9F73197AF01461B570BDC018C
:100BC000ED91FC910280F381E02D09948F929F9228
:100BD000AF92BF92EF92FF920F931F93CF93DF9349
:100BE000CDB7DEB7A1970FB6F894DEBF0FBECDBF6D
:100BF0007C01FA01CB0119A2223008F42AE08E010F
:100C00000F5D1F4F822E912CB12CA12CBF01A5018D
:100C100094010E94BC13F901CA016A300CF5605DB1
:100C2000D8016E938D01232B242B252B79F790E08F
:100C300080E0109721F0BD01C7010E94D705A19661
:100C40000FB6F894DEBF0FBECDBFDF91CF911F91DD
:100C50000F91FF90EF90BF90AF909F908F9008956D
:100C6000695CDECFCF92DF92EF92FF92CF93DF935A
:100C70006B017C016DE28CEC92E00E94FD02EC01C4
:100C800044275527BA014C195D096E097F092AE0EE
:100C90008CEC92E00E94E6058C0F9D1FDF91CF91B6
:100CA000FF90EF90DF90CF900895CF92DF92EF9278
:100CB000FF920F931F93CF93DF9361E080918E0398
:100CC0000E948D0183E191E00197F1F760E080914E
:100CD0008E030E948D018BE891E00197F1F70E944D
:100CE0004E026B017C0180918D030E94640101978B
:100CF00009F48BC0C0E00BE010E080919103C817AD
:100D000090F461E080918E030E948D01C8010197EB
:100D1000F1F760E080918E030E948D01C801019778
:100D2000F1F7CF5FEACF0E944E026B017C01809108
:100D30008D030E946401019779F40E944E026C19A0
:100D40007D098E099F09673272408105910578F30C
:100D5000C12CD12C76016FC018E1C12CD12C7601A9
:100D6000CBE0D0E061E080918E030E948D01CE0146
:100D70000197F1F7CC0CDD1CEE1CFF1C80918D035C
:100D80000E946401092E000CAA0BBB0BC82AD92AA9
:100D9000EA2AFB2A60E080918E030E948D01CE0139
:100DA0000197F1F71150F1F661E080918E030E94F6
:100DB0008D01CE010197F1F760E080918E030E94D2
:100DC0008D012197F1F761E080918E030E948D01E2
:100DD00083E191E00197F1F7E7FE24C0FF24FA9444
:100DE000C701B6010E94320660ED71E08CEC92E022
:100DF0000E94D705C701B601DF91CF911F910F91D6
:100E0000FF90EF90DF90CF9008950E944E026C19F2
:100E10007D098E099F09673272408105910508F4AA
:100E200062CF96CF84E7C81682E2D806E104F104C7
:100E300009F3F7FCD5CF2AE0B701A6018CEC92E0CC
:100E40000E94E605D1CF0F931F93CF93DF930E94AB
:100E50005506CDE8D3E00D811E812F813885601BBA
:100E6000710B820B930B0E94951229853A854B8555
:100E70005C850E94EB11DF91CF911F910F91089536
:100E8000CF92DF92EF92FF920F931F93CF93C12CDB
:100E9000D12C7601C0E00E945506C60ED71EE81E72
:100EA000F91ED701C601F7FE07C088279927DC0184
:100EB0008C199D09AE09BF0940917D0350917E03B5
:100EC00060917F037091800384179507A607B70789
:100ED000CCF4C701B6010E9495129B01AC01609150
:100EE000C8027091C9028091CA029091CB020E94FF
:100EF0007A116093C8027093C9028093CA029093DA
:100F0000CB02C150CF5FC33031F6C701B60123E039
:100F100030E040E050E00E94DE138091C4029091E6
:100F2000C502A091C602B091C70279018A01E81AF0
:100F3000F90A0A0B1B0BC801B7010E9495122091F8
:100F400004013091050140910601509107010E9472
:100F5000EB11CF911F910F91FF90EF90DF90CF9009
:100F60000895CF93DF93BC018CEC92E00E94D705EB
:100F7000EC0160E471E08CEC92E00E94D7058C0FEC
:100F80009D1FDF91CF9108952F923F924F925F92D4
:100F90006F927F928F929F92AF92BF92CF92DF9289
:100FA000EF92FF921F93CF93DF93EC016A017B01D5
:100FB000722EAB019601CB01B6010E94B71363E418
:100FC00071E0811126C046015701E894B7F82FEF70
:100FD0003FEF4FE75FE7C501B4010E94B7138111EE
:100FE0000CC02FEF3FEF4FE75FE7C501B4010E9450
:100FF000E61167E471E0181664F02FEF3FEF4FE75A
:101000005FE4C701B6010E9445131816B4F46BE4FF
:1010100071E0CE01DF91CF911F91FF90EF90DF90B3
:10102000CF90BF90AF909F908F907F906F905F9088
:101030004F903F902F900C94D7052FEF3FEF4FE745
:101040005FECC701B6010E94E61187FDE0CF20E00A
:1010500030E0A901C701B6010E94E611312C212C14
:1010600087FF0DC0E881F9810190F081E02D6DE2EC
:10107000CE0109951C01F7FAF094F7F8F09410E00E
:1010800060E070E080E09FE3711641F020E030E026
:1010900040E251E40E94EB111F5FF6CFA7019601D9
:1010A0000E947A112B013C010E9464124B015C01E9
:1010B0002AE0BC01A401CE010E94E6057C01E20CFD
:1010C000F31C1123E1F1C501B4010E9493129B01AD
:1010D000AC01C301B2010E9479114B015C01E881AE
:1010E000F9810190F081E02D6EE2CE010995E80EC4
:1010F000F91E115020F120E030E040E251E4C5013A
:10110000B4010E944A132B013C010E9464124B015E
:10111000B12CA12C2AE0B501A401CE010E94E60564
:10112000E80EF91EC501B4010E9493129B01AC01A7
:10113000C301B2010E9479114B015C01DACFC701F2
:10114000DF91CF911F91FF90EF90DF90CF90BF90F4
:10115000AF909F908F907F906F905F904F903F9057
:101160002F900895CF92DF92EF92FF926B017C0156
:1011700061E081E00E949E0580918E028130C9F479
:101180002BE838E14DE050E4C701B6010E944A1354
:10119000AB01BC0122E081E893E00E94C4076FE448
:1011A00071E081E893E0FF90EF90DF90CF900C9496
:1011B000D70522E0B701A60181E893E00E94C407A9
:1011C00067E571E0EECF85ED8093BC00809117025A
:1011D00090911802A0911902B0911A020796A11DD0
:1011E000B11D23E0B695A795979587952A95D1F7D8
:1011F0002091BC0024FD03C010926002089540912C
:101200001702509118026091190270911A02452B31
:10121000462B472B69F30097A105B10541F02AE25F
:101220002A95F1F700C00197A109B109E1CF80919A
:1012300016020C94AF031F920F920FB60F92112457
:101240002F933F938F939F93AF93BF938091BC0253
:101250009091BD02A091BE02B091BF023091BB023D
:1012600023E0230F2D3758F50196A11DB11D2093C2
:10127000BB028093BC029093BD02A093BE02B093C8
:10128000BF028091C0029091C102A091C202B091B0
:10129000C3020196A11DB11D8093C0029093C102AB
:1012A000A093C202B093C302BF91AF919F918F915F
:1012B0003F912F910F900FBE0F901F90189526E829
:1012C000230F0296A11DB11DD2CF1F920F920FB610
:1012D0000F9211242F933F934F935F936F937F93BC
:1012E0008F939F93AF93BF93EF93FF93E09102018E
:1012F000F09103010995FF91EF91BF91AF919F91FB
:101300008F917F916F915F914F913F912F910F90AE
:101310000FBE0F901F9018951F920F920FB60F924D
:1013200011242F933F934F935F936F937F938F93EA
:101330009F93AF93BF93EF93FF93E0910001F091E0
:1013400001010995FF91EF91BF91AF919F918F910D
:101350007F916F915F914F913F912F910F900FBEB1
:101360000F901F9018951F920F920FB60F92112495
:101370002F933F934F935F936F937F938F939F939D
:10138000AF93BF93EF93FF938CEC92E00E94DB024C
:10139000FF91EF91BF91AF919F918F917F916F914D
:1013A0005F914F913F912F910F900FBE0F901F9023
:1013B00018951F920F920FB60F9211242F938F93AF
:1013C0009F93EF93FF93E091DC02F091DD02808127
:1013D000E091E202F091E30282FD1BC090818091D6
:1013E000E5028F5F8F732091E602821741F0E09152
:1013F000E502F0E0E453FD4F958F8093E502FF9105
:10140000EF919F918F912F910F900FBE0F901F9092
:1014100018958081F4CF1F920F920FB60F9211246E
:101420002F933F934F935F936F937F938F939F93EC
:10143000AF93BF93EF93FF938091B900887F80367D
:1014400009F44AC0F0F5883209F4A7C018F58031D4
:1014500009F49BC0B8F4882309F4F9C0883009F472
:1014600094C0FF91EF91BF91AF919F918F917F9128
:101470006F915F914F913F912F910F900FBE0F9001
:101480001F901895883109F488C0803251F78093F5
:101490005F0214C0803409F49DC040F48033B9F376
:1014A0008833F9F680935F0285ECB0C0803509F48B
:1014B00085C0883509F496C0883499F60E94E308FF
:1014C000D0CF883909F48CC038F5883729F050F42A
:1014D000883611F0803729F683E0809360021092FD
:1014E0005E0257C0883809F47BC0803919F0803813
:1014F00009F0B7CF80915E02803208F071C0E091B0
:101500005E0281E08E0F80935E028091BB00F0E06E
:10151000E25CFD4F80833DC0803B39F0E0F4803ACF
:1015200009F479C0883A09F09CCF84E08093600286
:1015300010923D0210923C02E0918802F0918902E3
:10154000099580913C0281110FC081E080933C029B
:1015500010921C0209C0803C09F4A6CF883C09F413
:10156000A3CF883B09F07DCFE0913D0281E08E0F53
:1015700080933D02F0E0E45EFD4F80818093BB00EC
:1015800090913D0280913C0229C080918502809318
:10159000BB0085EC8093BC0064CF90918402809165
:1015A0008302981758F5E091840281E08E0F8093B2
:1015B0008402F0E0ED59FD4F8081E9CFE091840293
:1015C00081E08E0F809384028091BB00F0E0ED59A2
:1015D000FD4F808390918402809183029817C8F216
:1015E00085E8D8CFE091840281E08E0F8093840259
:1015F0008091BB00F0E0ED59FD4F80838091620245
:1016000081115CCF81E08093610284EA8093BC0009
:101610001092600226CF85EC8093BC00109260028D
:1016200080915E02803230F4E0915E02F0E0E25C94
:10163000FD4F108260915E0270E0E0918602F091B1
:1016400087028EE392E0099510925E020ACF109213
:101650005F0234CFECECF2E01382128288EE93E06A
:10166000A0E0B0E084839583A683B78324E131E0D2
:101670003183208325EC30E03587248724EC30E06B
:101680003787268720EC30E0318B208B21EC30E04F
:10169000338B228B22EC30E0358B248B26EC30E030
:1016A000378B268B118E128E138E148EE9E6F3E0A3
:1016B0001382128284839583A683B78386E291E0A6
:1016C00091838083EDE8F3E081E090E0938382836F
:1016D000158216821782108686E0808387E08183D8
:1016E00089E1848380E090E0A2EDB3E48187928772
:1016F000A387B487E1E8F3E01382128288E391E0E4
:101700009183808387E2848380E1818782E082877E
:10171000138620E030E048E453E4609104017091C6
:10172000050180910601909107010E944A130E94D1
:101730005D1260937D0370937E0380937F0390938B
:1017400080030E944E026093790370937A03809322
:101750007B0390937C030E944E0260937503709309
:10176000760380937703909378030895CF93DF9364
:10177000CDB7DEB766970FB6F894DEBF0FBECDBF0C
:10178000789484B5826084BD84B5816084BD85B55C
:10179000826085BD85B5816085BD80916E00816068
:1017A00080936E001092810080918100826080930E
:1017B0008100809181008160809381008091800010
:1017C0008160809380008091B10084608093B1003B
:1017D0008091B00081608093B00080917A00846035
:1017E00080937A0080917A00826080937A00809161
:1017F0007A00816080937A0080917A00806880937B
:101800007A001092C100E091DC02F091DD0282E0EA
:101810008083E091DC02F091DD021082E091D80239
:10182000F091D9021082E091DA02F091DB0280E1BE
:1018300080831092E402E091E002F091E10286E000
:101840008083E091DE02F091DF02808180618083FD
:10185000E091DE02F091DF02808188608083E09178
:10186000DE02F091DF02808180688083E091DE02F9
:10187000F091DF0280818F7D808362E084E00E94AE
:10188000BB0162E085E00E94BB0162E089E00E944A
:10189000BB0162E088E00E94BB0162E083E00E943D
:1018A000BB0189E495E0909303018093020180914C
:1018B00069008C6080936900E99A61E080918E03F1
:1018C0000E94BB0160E080918D030E94BB011092D9
:1018D0008D0210928C0210928B0210928A020E944A
:1018E00091038AE592E090938902809388028BE5C8
:1018F00092E09093870280938602109286038091F3
:101900008B03823018F098E09093860380938903CC
:1019100062E370E080E090E00E941C0260918C0322
:1019200081E893E00E94560468EE73E080E090E066
:101930000E941C0260E381E893E00E946E050BE4C4
:1019400016E4C8010197F1F760E381E893E00E9493
:101950006E05C8010197F1F760E381E893E00E940A
:101960006E0583E592E00197F1F760E281E893E08C
:101970000E946E0560918603606240E081E893E01A
:101980000E94870584E08093870340E06CE081E853
:1019900093E00E94870540E061E081E893E00E94C7
:1019A00087050BE31FE1C8010197F1F782E08093FF
:1019B000880340E066E081E893E00E94870540E00C
:1019C00062E081E893E00E948705C8010197F1F782
:1019D0000E943D0560E080E00E949E056FE571E099
:1019E00081E893E00E94D70561E080E00E949E05B7
:1019F0006EE671E081E893E00E94D70568EE73E03F
:101A000080E090E00E941C0260E080E00E949E0561
:101A10006FE571E081E893E00E94D70568EE73E01E
:101A200080E090E00E941C028CE791E00E94B107E8
:101A300004E110E00E9423070E9423070E9423076D
:101A400001501109B9F768EE73E080E090E00E9460
:101A50001C028CE891E00E94B10704E110E00E94B2
:101A6000400701501109D9F768EE73E080E090E07B
:101A70000E941C028BE991E00E94B10744E1242EF0
:101A8000312C2DB73EB73E8B2D8BC12CD12C76013E
:101A900010E00E9455064B015C0197FF07C08824A7
:101AA00099245401861A970AA80AB90A40907D031E
:101AB00050907E0360907F0370908003841495049F
:101AC000A604B7040CF025C234E0139FF0011124E2
:101AD00041E050E04C0F5D1FE40FF51F6083718300
:101AE00082839383C60ED71EE81EF91E1F5F153032
:101AF00081F6C701B60125E030E040E050E00E94E9
:101B0000DE1349015A01BA01A901CE0101960E94D2
:101B10008C00C988DA88EB88FC88C818D908EA08DC
:101B2000FB08F7FE08C0F094E094D094C094C11C68
:101B3000D11CE11CF11C12E32DEC3CEC4CEC5DE300
:101B40006091040170910501809106019091070157
:101B50000E944A130E945D12072E000C880B990BFD
:101B60006C157D058E059F050CF04DC00E94550635
:101B70002B013C01DC01CB0188199909AA09BB0999
:101B8000B7FF07C0B095A095909581959F4FAF4F37
:101B9000BF4F8C159D05AE05BF0594F589899A89BF
:101BA000AB89BC89A3019201281B390B4A0B5B0B43
:101BB000CA01B90125E030E040E050E00E94DE13A8
:101BC000820E931EA41EB51E498A5A8A6B8A7C8A8D
:101BD000B501A401CE0101960E948C00C988DA8863
:101BE000EB88FC88C818D908EA08FB08F7FE08C08B
:101BF000F094E094D094C094C11CD11CE11CF11C61
:101C0000115009F099CFC092B702D092B802E09279
:101C1000B902F092BA028091C4029091C502A091DB
:101C2000C602B091C702A5019401281B390B4A0BCB
:101C30005B0BCA01B9010E949512209104013091F9
:101C4000050140910601509107010E94EB110FB66A
:101C5000F894DEBF0FBECDBF6093B3027093B402A1
:101C60008093B5029093B6026AEA71E08CEC92E040
:101C70000E94D7054091B3025091B4026091B50221
:101C80007091B60222E08CEC92E00E94C40765EBF2
:101C900071E08CEC92E00E94D7054091B702509120
:101CA000B8026091B9027091BA0277FF34C1CB01DA
:101CB000BA010E94320660E471E08CEC92E00E946E
:101CC000D70551E0251A310809F0DBCE87EB91E00A
:101CD0000E94B1070E9440074B015C018092B30251
:101CE0009092B402A092B502B092B60220E030E029
:101CF000A9010E94451318160CF013C120E030E032
:101D000048E453E4C501B4010E944513181614F3C6
:101D10000091B1021091B202C801880F991F880F7B
:101D2000991FFC01E356FD4F7F01208131814281E3
:101D30005381C501B4010E94791120E030E040EAEE
:101D400050E40E94EB119B01AC016091C8027091BC
:101D5000C9028091CA029091CB020E947A116093CD
:101D6000C8027093C9028093CA029093CB02F70114
:101D700080829182A282B3820F5F1F4F05301105CE
:101D800009F4DAC01093B2020093B10222E0B50167
:101D9000A4018CEC92E00E94C40760E471E08CEC3A
:101DA00092E00E94D7056091B3027091B4028091D5
:101DB000B5029091B6020E94B2082091C8023091FB
:101DC000C9024091CA025091CB026091B302709156
:101DD000B4028091B5029091B6020E9479116B0114
:101DE0007C0120E030E0A9010E94451318160CF098
:101DF000A8C02DEC3CEC4CE45EE3C701B6010E94A8
:101E0000E61187FFA9C00E944E020091790310914C
:101E10007A0320917B0330917C03601B710B820B52
:101E2000930B613177428105910508F49FC01092B0
:101E30008C0360E081E893E00E94560464EF71E057
:101E400080E090E00E941C020E943D0564EF71E07A
:101E500080E090E00E941C0210928C0360E081E818
:101E600093E00E94560464EF71E080E090E00E94ED
:101E70001C020E943D0560EB74E080E090E00E944F
:101E80001C0210928C0360E081E893E00E945604EB
:101E900040E061E081E893E00E9487058BE39FE1E9
:101EA0000197F1F7C090B302D090B402E090B50270
:101EB000F090B6020E9423079B01AC01C701B60156
:101EC0000E94791120E030E0A9010E944513C090E2
:101ED000B302D090B402E090B502F090B6021816AA
:101EE0000CF0DCC00E9423079B01AC01C701B601C6
:101EF0000E9479112DEC3CEC4CE45EE30E94E6116B
:101F000087FFDDC064EF71E080E090E00E941C027A
:101F1000C9CF1150EBCD2AE08CEC92E00E94E6058F
:101F2000CACE20E030E048E453ECC501B4010E9481
:101F3000E61187FDCFCEECCE1092B2021092B10224
:101F400025CF2DEC3CEC4CE45EEBC701B6010E94C2
:101F5000451318160CF457CF0E944E026093790374
:101F600070937A0380937B0390937C034090C80224
:101F70005090C9026090CA027090CB0220E030E01D
:101F800040E85FE3C301B2010E94451318160CF04C
:101F9000A4C08090B3029090B402A090B502B0901B
:101FA000B602A3019201C501B4010E9479116B012F
:101FB0007C0120E030E0A9010E94451318160CF0C6
:101FC00081C02DEC3CEC4CE45EE3C701B6010E94FD
:101FD000E61187FF82C000919B0210919C02F801DC
:101FE000EE0FFF1FEE0FFF1FE157FD4F20813181E4
:101FF00042815381C301B2010E9479116B017C01BE
:1020000020E030E0A9010E94451318160CF0FBC037
:102010002DEC3CEC4CE45EE3C701B6010E94451395
:1020200018160CF05AC09DE9E92E92E0F92EF7013E
:1020300061917191819191917F01A50194010E941B
:1020400079112B013C0120E030E0A9010E944513E9
:1020500018160CF0E3C02DEC3CEC4CE45EE3C3013D
:10206000B2010E94451318160CF4E2C00F5F1F4F17
:102070000330110511F410E000E0F801EE0FFF1F2E
:10208000EE0FFF1FE157FD4F80829182A282B38243
:10209000F1EBEF16F2E0FF0651F6CAC00E942307EB
:1020A0009B01AC01C701B6010E9479112DEC3CECFB
:1020B0004CE45EEB0E94451318160CF423CF0E94EB
:1020C0003D054ACF2DEC3CEC4CE45EEBC701B6017C
:1020D0000E94451318160CF47ECF84E00E94640120
:1020E000892B61F50E9455066093920370939303C8
:1020F00080939403909395036093C4027093C502F8
:102100008093C6029093C70261E080E00E949E0522
:1021100060EC71E081E893E00E94D70564E670E02E
:1021200080E090E00E941C020E944E0260937903BE
:1021300070937A0380937B0390937C0385E00E94E5
:102140006401892B09F581E090918E02911180E064
:1021500080938E026091B3027091B4028091B502B7
:102160009091B6020E94B20864E670E080E090E0D0
:102170000E941C020E944E026093790370937A03BE
:1021800080937B0390937C0389E00E946401892BF8
:1021900009F053C020E030E040E85FE360910401C3
:1021A0007091050180910601909107010E947911BB
:1021B000AB01BC01409304015093050160930601FB
:1021C0007093070180917D0390917E03A0917F031E
:1021D000B0918003885C9109A109B10980937D03C6
:1021E00090937E03A0937F03B09380034093960364
:1021F0005093970360939803709399030E9440074C
:102200000E94B208B7CF2DEC3CEC4CE45EEBC7016A
:10221000B6010E94E61187FF60CF05CF2DEC3CECA4
:102220004CE45EEBC301B2010E94E61187FF1ECFB2
:1022300010939C0200939B0250CF88E00E9464019F
:10224000892B09F043C020E030E040E85FE3609173
:1022500004017091050180910601909107010E948F
:102260007A11AB01BC0140930401509305016093C6
:1022700006017093070180917D0390917E03A091E8
:102280007F03B091800388539F4FAF4FBF4F809320
:102290007D0390937E03A0937F03B09380034093CC
:1022A00096035093970360939803709399030E9449
:1022B00040070E94B2080E944E0260937903709317
:1022C0007A0380937B0390937C03B7CF64E170E043
:1022D00080E090E00E941C0220E030E0232B09F413
:1022E00093CB0E94C702882309F48ECB0E94000082
:1022F0008BCB5058BB27AA270E9491110C940B132B
:102300000E94FD1238F00E94041320F039F49F3F20
:1023100019F426F40C94FA120EF4E095E7FB0C94F1
:10232000F412E92F0E941C1358F3BA1762077307BF
:102330008407950720F079F4A6F50C943E130EF46B
:10234000E0950B2EBA2FA02D0B01B90190010C01C5
:10235000CA01A0011124FF27591B99F0593F50F4DD
:10236000503E68F11A16F040A22F232F342F442735
:10237000585FF3CF469537952795A795F04053952D
:10238000C9F77EF41F16BA0B620B730B840BBAF0FD
:102390009150A1F0FF0FBB1F661F771F881FC2F768
:1023A0000EC0BA0F621F731F841F48F4879577957C
:1023B0006795B795F7959E3F08F0B0CF9395880F36
:1023C00008F09927EE0F9795879508950E94D012EF
:1023D00008F481E008950E94FF110C940B130E94F1
:1023E000041358F00E94FD1240F029F45F3F29F0D9
:1023F0000C94F41251110C943F130C94FA120E9495
:102400001C1368F39923B1F3552391F3951B550BD6
:10241000BB27AA2762177307840738F09F5F5F4FB7
:10242000220F331F441FAA1FA9F335D00E2E3AF0F6
:10243000E0E832D091505040E695001CCAF72BD00E
:10244000FE2F29D0660F771F881FBB1F261737075F
:102450004807AB07B0E809F0BB0B802DBF01FF2791
:1024600093585F4F3AF09E3F510578F00C94F41268
:102470000C943F135F3FE4F3983ED4F38695779531
:102480006795B795F7959F5FC9F7880F911D96954A
:10249000879597F90895E1E0660F771F881FBB1FA6
:1024A000621773078407BA0720F0621B730B840B53
:1024B000BA0BEE1F88F7E09508950E9464126894A5
:1024C000B1110C943F1308950E94241388F09F5774
:1024D00098F0B92F9927B751B0F0E1F0660F771F48
:1024E000881F991F1AF0BA95C9F714C0B13091F03E
:1024F0000E943E13B1E008950C943E13672F782F8D
:102500008827B85F39F0B93FCCF386957795679502
:10251000B395D9F73EF490958095709561957F4F6E
:102520008F4F9F4F0895E89409C097FB3EF4909514
:102530008095709561957F4F8F4F9F4F9923A9F09C
:10254000F92F96E9BB279395F6958795779567952B
:10255000B795F111F8CFFAF4BB0F11F460FF1BC06F
:102560006F5F7F4F8F4F9F4F16C0882311F096E902
:1025700011C0772321F09EE8872F762F05C06623B0
:1025800071F096E8862F70E060E02AF09A95660F69
:10259000771F881FDAF7880F9695879597F9089522
:1025A000990F0008550FAA0BE0E8FEEF1616170664
:1025B000E807F907C0F012161306E407F50798F0CC
:1025C000621B730B840B950B39F40A2661F0232BE5
:1025D000242B252B21F408950A2609F4A140A69561
:1025E0008FEF811D811D089597F99F6780E870E046
:1025F00060E008959FEF80EC089500240A94161679
:10260000170618060906089500240A9412161306E0
:10261000140605060895092E0394000C11F488236E
:1026200052F0BB0F40F4BF2B11F460FF04C06F5F8A
:102630007F4F8F4F9F4F089557FD9058440F551F60
:1026400059F05F3F71F04795880F97FB991F61F034
:102650009F3F79F087950895121613061406551FAB
:10266000F2CF4695F1DF08C0161617061806991F17
:10267000F1CF86957105610508940895E894BB270C
:1026800066277727CB0197F908950E94D01208F4A6
:102690008FEF08950E945D130C940B130E94FD129E
:1026A00038F00E94041320F0952311F00C94F412DA
:1026B0000C94FA1211240C943F130E941C1370F313
:1026C000959FC1F3950F50E0551F629FF001729FD7
:1026D000BB27F00DB11D639FAA27F00DB11DAA1FE6
:1026E000649F6627B00DA11D661F829F2227B00D33
:1026F000A11D621F739FB00DA11D621F839FA00DBE
:10270000611D221F749F3327A00D611D231F849F0D
:10271000600D211D822F762F6A2F11249F57504064
:102720009AF0F1F088234AF0EE0FFF1FBB1F661FDF
:10273000771F881F91505040A9F79E3F510580F0A8
:102740000C94F4120C943F135F3FE4F3983ED4F3DF
:10275000869577956795B795F795E7959F5FC1F74C
:10276000FE2B880F911D9695879597F908950E94E5
:10277000D012880B990B0895A1E21A2EAA1BBB1B3D
:10278000FD010DC0AA1FBB1FEE1FFF1FA217B3073D
:10279000E407F50720F0A21BB30BE40BF50B661F53
:1027A000771F881F991F1A9469F760957095809517
:1027B00090959B01AC01BD01CF010895052E97FBBB
:1027C0001EF400940E94F51357FD07D00E94BC131D
:1027D00007FC03D04EF40C94F513509540953095BA
:1027E00021953F4F4F4F5F4F08959095809570957D
:1027F00061957F4F8F4F9F4F0895EE0FFF1F0590FC
:10280000F491E02D0994F894FFCF5C025C02000083
:10281000D243000040001400540000000000FD02FC
:102820005D028A024A03BB029902AD020000000069
:102830002704FA034605D003F303E003D1030000A5
:102840000000D1055D02460545050D0A006E616E6A
:1028500000696E66006F766600206C622020202082
:1028600000206B6720202020002044696769746184
:102870006C205363616C650020534F494354202DF5
:102880002048555354000D0A676574576569676899
:102890007428292A33000D0A6765745765696768CB
:1028A00074283329000D0A67657457656967687471
:1028B0005F2829000920526573756C743A2000095D
:1028C000000D0A454E442121210020546172696E99
:0C28D000672E2E2E20202020202020002B
:107E0000112484B714BE81FFF0D085E080938100F7
:107E100082E08093C00088E18093C10086E0809377
:107E2000C20080E18093C4008EE0C9D0259A86E02C
:107E300020E33CEF91E0309385002093840096BBD3
:107E4000B09BFECF1D9AA8958150A9F7CC24DD24C4
:107E500088248394B5E0AB2EA1E19A2EF3E0BF2EE7
:107E6000A2D0813461F49FD0082FAFD0023811F036
:107E7000013811F484E001C083E08DD089C08234E0
:107E800011F484E103C0853419F485E0A6D080C0E4
:107E9000853579F488D0E82EFF2485D0082F10E0AE
:107EA000102F00270E291F29000F111F8ED06801E7
:107EB0006FC0863521F484E090D080E0DECF843638
:107EC00009F040C070D06FD0082F6DD080E0C81688
:107ED00080E7D80618F4F601B7BEE895C0E0D1E017
:107EE00062D089930C17E1F7F0E0CF16F0E7DF06D8
:107EF00018F0F601B7BEE89568D007B600FCFDCFD4
:107F0000A601A0E0B1E02C9130E011968C91119780
:107F100090E0982F8827822B932B1296FA010C0160
:107F200087BEE89511244E5F5F4FF1E0A038BF0790
:107F300051F7F601A7BEE89507B600FCFDCF97BE46
:107F4000E89526C08437B1F42ED02DD0F82E2BD052
:107F50003CD0F601EF2C8F010F5F1F4F84911BD097
:107F6000EA94F801C1F70894C11CD11CFA94CF0C13
:107F7000D11C0EC0853739F428D08EE10CD085E9AC
:107F80000AD08FE07ACF813511F488E018D01DD067
:107F900080E101D065CF982F8091C00085FFFCCF94
:107FA0009093C60008958091C00087FFFCCF809118
:107FB000C00084FD01C0A8958091C6000895E0E648
:107FC000F0E098E1908380830895EDDF803219F02E
:107FD00088E0F5DFFFCF84E1DECF1F93182FE3DFCA
:107FE0001150E9F7F2DF1F91089580E0E8DFEE27F6
:047FF000FF270994CA
:027FFE00040479
:00000001FF
