:020000040000FA
:100000000C9462000C948A000C948A000C948A0070
:100010000C948A000C948A000C948A000C948A0038
:100020000C948A000C948A000C948A000C948A0028
:100030000C948A000C948A000C948A000C948A0018
:100040000C948B080C948A000C94FB080C94D50833
:100050000C948A000C948A000C948A000C948A00F8
:100060000C942D090C948A00000000002400270045
:100070002A0000000000250028002B0000000000DE
:1000800023002600290004040404040404040202DA
:100090000202020203030303030301020408102007
:1000A0004080010204081020010204081020000012
:1000B0000008000201000003040700000000000027
:1000C00000004C0A11241FBECFEFD8E0DEBFCDBF29
:1000D00023E0ACE8B1E001C01D92AB31B207E1F71B
:1000E00011E0A0E0B1E0E6E5FFE102C005900D926D
:1000F000AC38B107D9F710E0C2E6D0E004C02197D0
:10010000FE010E949E0FC136D107C9F70E94B80AAE
:100110000C94A90F0C940000833081F028F48130F6
:1001200099F08230A9F008958730A9F08830C9F09D
:100130008430B1F4809180008F7D03C08091800075
:100140008F7780938000089584B58F7784BD08955C
:1001500084B58F7DFBCF8091B0008F778093B00006
:1001600008958091B0008F7DF9CFCF93DF93282F32
:1001700030E0F901E255FF4F8491F901E656FF4F57
:10018000D491F901EA57FF4FC491CC23A1F081111A
:100190000E948C00EC2FF0E0EE0FFF1FE458FF4FA1
:1001A000A591B491EC91ED2381E090E009F480E019
:1001B000DF91CF91089580E090E0FACF1F93CF9325
:1001C000DF93282F30E0F901E255FF4F8491F901C8
:1001D000E656FF4FD491F901EA57FF4FC491CC2363
:1001E000A9F0162F81110E948C00EC2FF0E0EE0F89
:1001F000FF1FEE58FF4FA591B4918FB7F894EC9183
:10020000111108C0D095DE23DC938FBFDF91CF9111
:100210001F910895DE2BF8CFCF93DF9390E0FC0180
:10022000E656FF4F24918A579F4FFC018491882303
:10023000C9F090E0880F991FFC01E859FF4FA59184
:10024000B491FC01EE58FF4FC591D49161110DC0DE
:100250009FB7F8948C91209582238C9388812823D2
:1002600028839FBFDF91CF910895623051F49FB7EB
:10027000F8943C91822F809583238C93E8812E2BD8
:10028000EFCF8FB7F894EC912E2B2C938FBFEACF42
:100290003FB7F8948091D9019091DA01A091DB01E8
:1002A000B091DC0126B5A89B05C02F3F19F001963F
:1002B000A11DB11D3FBFBA2FA92F982F8827BC01C0
:1002C000CD01620F711D811D911D42E0660F771FE8
:1002D000881F991F4A95D1F708958F929F92AF92E8
:1002E000BF92CF92DF92EF92FF926B017C010E944E
:1002F00048014B015C01C114D104E104F104B9F0DF
:100300000E944801681979098A099B09683E73406F
:100310008105910580F321E0C21AD108E108F108B6
:1003200088EE880E83E0981EA11CB11CE4CFFF90DC
:10033000EF90DF90CF90BF90AF909F908F900895F7
:100340002FB7F8946091D5017091D6018091D701B3
:100350009091D8012FBF089508950895AF92BF924C
:10036000CF92DF92EF92FF920F931F93CF93DF9381
:100370006C017B018B01040F151FEB015E01AE18B0
:10038000BF08C017D10759F06991D601ED91FC91D2
:100390000190F081E02DC6010995892B79F7C501FF
:1003A000DF91CF911F910F91FF90EF90DF90CF9051
:1003B000BF90AF900895FC01538D448D252F30E000
:1003C000842F90E0821B930B541710F0CF96089562
:1003D00001970895FC01918D828D981761F0A28D8F
:1003E000AE0FBF2FB11D5D968C91928D9F5F9F7355
:1003F000928F90E008958FEF9FEF0895FC01918D0B
:10040000828D981731F0828DE80FF11D858D90E077
:1004100008958FEF9FEF0895FC01918D228D892F14
:1004200090E0805C9F4F821B91098F7399270895FC
:100430008FE492E00E940C0221E0892B09F420E075
:10044000822F089580E090E0892B29F00E94180205
:1004500081110C9400000895FC01A48DA80FB92F00
:10046000B11DA35ABF4F2C91848D90E001968F73DC
:100470009927848FA689B7892C93A089B1898C91FB
:10048000837080648C93938D848D981306C002884A
:10049000F389E02D80818F7D80830895EF92FF9214
:1004A0000F931F93CF93DF93EC0181E0888F9B8D97
:1004B0008C8D98131AC0E889F989808185FF15C051
:1004C0009FB7F894EE89FF896083E889F989808174
:1004D0008370806480839FBF81E090E0DF91CF9143
:1004E0001F910F91FF90EF900895F62E0B8D10E065
:1004F0000F5F1F4F0F731127E02E8C8D8E110CC0D4
:100500000FB607FCFACFE889F989808185FFF5CF1E
:10051000CE010E942C02F1CFEB8DEC0FFD2FF11DCF
:10052000E35AFF4FF0829FB7F8940B8FEA89FB895B
:1005300080818062CFCFCF93DF93EC01888D8823B9
:10054000B9F0AA89BB89E889F9898C9185FD03C036
:10055000808186FD0DC00FB607FCF7CF8C9185FF1B
:10056000F2CF808185FFEDCFCE010E942C02E9CF32
:10057000DF91CF9108952091AD01260F3327331FCE
:1005800021323105ECF420912502FC0190E080E05D
:10059000243069F082E00895A091AD012191AC0171
:1005A00043575E4FA40FB52FB11D2C9301968617AC
:1005B00098F38091AD01680F6093AD0180E00895DC
:1005C00081E008951092250281E080932402109228
:1005D000FF0161E082E10E94DE0061E083E10E94B0
:1005E000DE00E9EBF0E080818E7F808380818D7F6B
:1005F000808388E48093B80085E48093BC000895EC
:10060000CF93DF9391E090938C018823B9F0C09150
:10061000B800D091BA008091BC008A7B8093BC0066
:1006200060E082E10E94DE0060E083E10E94DE0083
:100630000E94E202D093BA00C093B800DF91CF913C
:1006400008958F929F92AF92BF92CF92DF92EF92D6
:10065000FF920F931F93CF93DF93D0914E02D1322D
:1006600008F0D7C0182FC0914D020E9448016B01BD
:100670007C018091250281116BC082E0809325026C
:10068000109324028FEF8093230210922202D093C2
:100690002102ADE2B2E0E1E0F2E080E0D81391C0E7
:1006A0001092000280910002CC0FC82BC093000270
:1006B0008091FF01813009F088C01092FF010E94F3
:1006C00048016B017C01809100028093BB00809106
:1006D000270290912802A0912902B0912A02892B29
:1006E0008A2B8B2BA1F00E944801009127021091C8
:1006F00028022091290230912A026C197D098E0965
:100700009F09061717072807390708F442C0809188
:10071000BC0083FDD8CF85EC8093BC000E944801CB
:100720006B017C0180912502823009F450C08091D8
:1007300023028F3F09F46FC080912302803209F4B5
:100740006CC080912302803309F469C084E026C024
:100750008091270290912802A0912902B0912A024B
:10076000892B8A2B8B2B09F484CF0E94480180901F
:10077000270290902802A0902902B0902A026C19BA
:100780007D098E099F0986169706A806B90608F006
:1007900070CF809126020E94000385E010922C0207
:1007A00010924E0210922B02DF91CF911F910F9168
:1007B000FF90EF90DF90CF90BF90AF909F908F9081
:1007C00008959D9191938F5F69CF85EEA5CF80911C
:1007D000270290912802A0912902B0912A02892B28
:1007E0008A2B8B2B09F49ECF0E944801009127028F
:1007F000109128022091290230912A026C197D095A
:100800008E099F09061717072807390708F08ACFAE
:10081000C0CF81E0C3CF80E0C1CF82E0BFCF83E013
:10082000BDCF0895E091DE018091DD01E81730F43D
:10083000F0E0E152FE4F808190E008958FEF9FEF4E
:1008400008959091DE018091DD012FEF3FEF981721
:1008500048F4E92FF0E0E152FE4F208130E09F5F45
:100860009093DE01C90108958091DD019091DE0130
:10087000891B990B0895CF92DF92EF92FF920F930D
:100880001F93CF93DF937C01CB018A0120912B0230
:10089000222389F0EB016B01C40ED51ECC15DD05BA
:1008A00069F06991D701ED91FC910190F081E02D03
:1008B000C7010995F3CF642F0E94BB02C801DF91E5
:1008C000CF911F910F91FF90EF90DF90CF900895FF
:1008D000CF93DF931F92CDB7DEB7698320912B02B0
:1008E0002223F9F020914E02203258F021E030E02E
:1008F000FC013383228390E080E00F90DF91CF9161
:10090000089580912C02E82FF0E0E35DFD4F99817E
:1009100090838F5F80932C0280934E0281E090E061
:10092000ECCF61E0CE0101960E94BB02F7CFFC0143
:10093000248131E030932B0220934D0210922C023F
:1009400010924E028485682B8CEE92E00E9468041F
:1009500081E00C942103089590E080E00895CF9306
:10096000DF93EC0161E08B850E940C0160E08985DA
:10097000DF91CF910C940C01FC0101900020E9F76C
:100980003197AF01481B590BBC018EE093E00C94EA
:10099000AE018F929F92AF92BF920F931F93CF930E
:1009A000DF93CDB7DEB7A1970FB6F894DEBF0FBEC9
:1009B000CDBF19A2423008F44AE08E010F5D1F4FEF
:1009C000842E912CB12CA12CA50194010E94750FAD
:1009D000E62FB901CA01EA30F4F4E05DD801EE93E4
:1009E0008D01232B242B252B79F790E080E01097A5
:1009F00019F0CD010E94BC04A1960FB6F894DEBF99
:100A00000FBECDBFDF91CF911F910F91BF90AF90DF
:100A10009F908F900895E95CE1CF4F925F926F9223
:100A20007F928F929F92AF92BF92CF92DF92EF927E
:100A3000FF920F931F93CF93DF9300D000D01F92AC
:100A4000CDB7DEB78091FA029091FB02892B09F4B1
:100A5000C1C061E0809103030E94DE0083E191E068
:100A60000197F1F760E0809103030E94DE008BE8BC
:100A700091E00197F1F70E94A0016B017C01809148
:100A800001030E94B500019731F50E94A0016C1985
:100A90007D098E099F09673272408105910578F3BF
:100AA000412C512C3201C301B2010F900F900F90D5
:100AB0000F900F90DF91CF911F910F91FF90EF90CA
:100AC000DF90CF90BF90AF909F908F907F906F906E
:100AD0005F904F9008958091050389518330F0F421
:100AE00010E000E02BE0E22EF12C8091050380174E
:100AF0001106A1F09CF061E0809103030E94DE00EA
:100B0000C7010197F1F760E0809103030E94DE00C6
:100B1000C7010197F1F70F5F1F4FE7CF0E94A001B8
:100B20006B017C01809101030E94B500019761F483
:100B30000E94A0016C197D098E099F0967327240DD
:100B40008105910578F3ACCF98E1A92EB12C412C09
:100B5000512C32010BE010E061E0809103030E9410
:100B6000DE00C8010197F1F7440C551C661C771C88
:100B7000809101030E94B500092E000CAA0BBB0B4B
:100B8000482A592A6A2A7B2A60E0809103030E943E
:100B9000DE00C8010197F1F7F1E0AF1AB108E1F604
:100BA00061E0809103030E94DE00C8010197F1F724
:100BB00060E0809103030E94DE00C8010197F1F715
:100BC00061E0809103030E94DE0083E191E00197E0
:100BD000F1F769CF809105038D838091FF0291E049
:100BE00090932B0280934D0210922C0210924E0291
:100BF0007E0125E0E20EF11C41E050E0B7018CEEF1
:100C000092E00E943B0481E00E94210390E09093D7
:100C1000FE028093FD021091FF020E9448014B01E9
:100C20005C0180912502811166C081E080932502DC
:100C3000809324029FEF909323021092220293E06C
:100C4000909321028093000280910002110F182BD3
:100C5000109300028091FF01813009F0ADC0109225
:100C6000FF010E9448014B015C01809100028093CA
:100C7000BB008091270290912802A0912902B09197
:100C80002A02892B8A2B8B2BA1F00E94480100910C
:100C90002702109128022091290230912A02681916
:100CA00079098A099B09061717072807390708F4E5
:100CB00043C08091BC0083FDD8CF85EC8093BC00FD
:100CC0000E9448014B015C0180912502813009F4AA
:100CD00075C080912202843008F092C08091220277
:100CE000E1E0F2E0AFEDB1E090E0981751F1219131
:100CF0002D939F5FFACF8091270290912802A091B7
:100D00002902B0912A02892B8A2B8B2B09F489CFD7
:100D10000E944801409027025090280260902902CA
:100D200070902A02681979098A099B0946165706A4
:100D30006806790608F075CF809126020E940003AC
:100D400080E01092DE018093DD018E010F5F1F4F66
:100D50000E94A0016093F4027093F5028093F60262
:100D60009093F7028CEE92E00E94210497FF4AC014
:100D70000E94A0018090F4029090F502A090F602EB
:100D8000B090F702681979098A099B098090F002EE
:100D90009090F102A090F202B090F30268157905EC
:100DA0008A059B05F8F269817A818B819C810E947A
:100DB000970F2B013C0177CE85EE80CF80912702E3
:100DC00090912802A0912902B0912A02892B8A2BA6
:100DD0008B2B09F479CF0E944801009127021091D2
:100DE00028022091290230912A02681979098A097A
:100DF0009B09061717072807390708F065CF9CCF0E
:100E000084E06ECFF80181938F01EE15FF0509F0A4
:100E10009FCFC9CF0F931F93CF938C01C62F0E94F2
:100E200097046C2F6460C8010E9497046C2F6B7F3D
:100E3000C8010E94970483EC90E00197F1F7CF91ED
:100E40001F910F9108950F931F93CF93DF938C0100
:100E5000D62FC42F607F642B0E940A0780E1D89FA1
:100E6000B00111246C2BC801DF91CF911F910F911C
:100E70000C940A07CF93DF93CDB7DEB728970FB650
:100E8000F894DEBF0FBECDBF98E0E2E0F1E0DE01F6
:100E9000119601900D929A95E1F79091160396178D
:100EA00008F46FEF262F30E0220F331F41E050E0AF
:100EB0004C0F5D1F240F351FF9016081680F6068BA
:100EC00040E08EE093E028960FB6F894DEBF0FBEA8
:100ED000CDBFDF91CF910C94230741E00E942307FF
:100EE00081E090E008954F925F926F927F928F928F
:100EF0009F92AF92BF92CF92DF92EF92FF920F93A9
:100F00001F93CF936B017C01742EAC019B010E9457
:100F1000700F882399F080E491E0CF911F910F9199
:100F2000FF90EF90DF90CF90BF90AF909F908F9009
:100F30007F906F905F904F900C94BC0446015701D6
:100F4000E894B7F82FEF3FEF4FE75FE7C501B40133
:100F50000E94700F81110DC02FEF3FEF4FE75FE749
:100F6000C501B4010E94390D18161CF484E491E007
:100F7000D4CF2FEF3FEF4FE75FE4C701B6010E94E8
:100F80006B0F18161CF488E491E0C7CF2FEF3FEFEA
:100F90004FE75FECC701B6010E94390D87FDF3CF23
:100FA00020E030E0A901C701B6010E94390D10E030
:100FB00000E087FF0CC041E06DE28EE093E00E940C
:100FC0002307F7FAF094F7F8F09401E010E0C0E09E
:100FD00060E070E080E09FE37C1641F020E030E0CC
:100FE00040E251E40E94CA0ECF5FF6CFA7019601FE
:100FF0000E945E0E4B015C010E943C0F2B013C01E4
:101000004AE00E94C904080F191FCC23C9F1C3018B
:10101000B2010E943E0D9B01AC01C501B4010E94CA
:101020005D0E4B015C0141E06EE28EE093E00E94B8
:1010300023070F5F1F4FC15018F120E030E040E25E
:1010400051E4C501B4010E949F0D2B013C010E9497
:101050003C0F4B01B12CA12C4AE0C501B4010E9408
:10106000C904080F191FC501B4010E943E0D9B0160
:10107000AC01C301B2010E945D0E4B015C01DBCFEC
:10108000C801CF911F910F91FF90EF90DF90CF900B
:10109000BF90AF909F908F907F906F905F904F9098
:1010A00008950E94A40F85ED8093BC0080912702D3
:1010B00090912802A0912902B0912A020796A11DC1
:1010C000B11D23E0B695A795979587952A95D1F7F9
:1010D0002091BC0024FD03C0109225020895409188
:1010E0002702509128026091290270912A02452B13
:1010F000462B472B69F30097A105B10541F02AE281
:101100002A95F1F700C00197A109B109E1CF8091BB
:1011100026020C9400031F920F920FB60F92112417
:101120002F933F938F939F93AF93BF938091D5015C
:101130009091D601A091D701B091D8013091D401FE
:1011400023E0230F2D3758F50196A11DB11D2093E3
:10115000D4018093D5019093D601A093D701B09389
:10116000D8018091D9019091DA01A091DB01B09171
:10117000DC010196A11DB11D8093D9019093DA0184
:10118000A093DB01B093DC01BF91AF919F918F9150
:101190003F912F910F900FBE0F901F90189526E84A
:1011A000230F0296A11DB11DD2CF1F920F920FB631
:1011B0000F9211242F933F934F935F936F937F93DD
:1011C0008F939F93AF93BF93EF93FF938FE492E03E
:1011D0000E942C02FF91EF91BF91AF919F918F914F
:1011E0007F916F915F914F913F912F910F900FBE23
:1011F0000F901F9018951F920F920FB60F92112407
:101200002F938F939F93EF93FF93E0915F02F09161
:1012100060028081E0916502F091660282FD1BC050
:101220009081809168028F5F8F732091690282178D
:1012300041F0E0916802F0E0E15BFD4F958F809313
:101240006802FF91EF919F918F912F910F900FBEA8
:101250000F901F9018958081F4CF1F920F920FB6B8
:101260000F9211242F933F934F935F936F937F932C
:101270008F939F93AF93BF93EF93FF938091B900A8
:10128000887F803609F44AC0F0F5883209F4A7C097
:1012900018F5803109F49BC0B8F4882309F4F9C02B
:1012A000883009F494C0FF91EF91BF91AF919F9165
:1012B0008F917F916F915F914F913F912F910F90FF
:1012C0000FBE0F901F901895883109F488C08032A6
:1012D00051F78093230214C0803409F49DC040F478
:1012E0008033B9F38833F9F68093230285ECB0C0DC
:1012F000803509F485C0883509F496C0883499F69C
:101300000E945308D0CF883909F48CC038F588374B
:1013100029F050F4883611F0803729F683E0809365
:1013200025021092CF0157C0883809F47BC080395C
:1013300019F0803809F0B7CF8091CF01803208F0E2
:1013400071C0E091CF0181E08E0F8093CF01809139
:10135000BB00F0E0E155FE4F80833DC0803B39F09B
:10136000E0F4803A09F479C0883A09F09CCF84E02F
:10137000809325021092AE011092AD01E091D00150
:10138000F091D10109958091AD0181110FC081E0EB
:101390008093AD0110928D0109C0803C09F4A6CF65
:1013A000883C09F4A3CF883B09F07DCFE091AE01E2
:1013B00081E08E0F8093AE01F0E0E357FE4F808115
:1013C0008093BB009091AE018091AD0129C08091C6
:1013D00000028093BB0085EC8093BC0064CF9091A9
:1013E000220280912102981758F5E091220281E0B3
:1013F0008E0F80932202F0E0EF5FFD4F8081E9CFF6
:10140000E091220281E08E0F809322028091BB0046
:10141000F0E0EF5FFD4F80839091220280912102E6
:101420009817C8F285E8D8CFE091220281E08E0FAC
:10143000809322028091BB00F0E0EF5FFD4F80833C
:101440008091240281115CCF81E08093FF0184EAC6
:101450008093BC001092250226CF85EC8093BC00BF
:10146000109225028091CF01803230F4E091CF01BB
:10147000F0E0E155FE4F10826091CF0170E0E09105
:10148000D201F091D3018FEA91E009951092CF013A
:101490000ACF1092230234CFEFE4F2E013821282DB
:1014A00088EE93E0A0E0B0E084839583A683B783C1
:1014B0002EE031E03183208325EC30E0358724872E
:1014C00024EC30E03787268720EC30E0318B208B0E
:1014D00021EC30E0338B228B22EC30E0358B248BF7
:1014E00026EC30E0378B268B118E128E138E148EE5
:1014F000ECEEF2E01382128284839583A683B78395
:1015000080E291E091838083EEE0F3E01382128227
:1015100088E391E091838083118687E2848380E170
:10152000828782E083871486E8EFF2E0148280E30A
:10153000808782E391E09183808389E185871686A5
:101540001786108A118A80E090E0A0E8BFE3828BC2
:10155000938BA48BB58B87E090E09487838786E09C
:1015600090E09287818781E090E093838283089561
:10157000789484B5826084BD84B5816084BD85B56E
:10158000826085BD85B5816085BD80916E0081607A
:1015900080936E0010928100809181008260809320
:1015A0008100809181008160809381008091800022
:1015B0008160809380008091B10084608093B1004D
:1015C0008091B00081608093B00080917A00846047
:1015D00080937A0080917A00826080937A00809173
:1015E0007A00816080937A0080917A00806880938D
:1015F0007A001092C100E0915F02F091600282E0F7
:101600008083E0915F02F09160021082E0915B02C2
:10161000F0915C021082E0915D02F0915E0280E147
:10162000808310926702E0916302F091640286E089
:101630008083E0916102F091620280818061808309
:10164000E0916102F0916202808188608083E09184
:101650006102F0916202808180688083E091610282
:10166000F091620280818F7D808362E084E00E943D
:101670000C0162E089E00E940C0162E088E00E94B7
:101680000C018091FA029091FB02892B09F47BC135
:1016900088EF92E00E94AF0481E08093FC020E94F8
:1016A0000D056093060370930703809308039093DE
:1016B000090389E18093050380E090E0A2EDB3E4A3
:1016C00080930A0390930B03A0930C03B0930D0334
:1016D0001092DE011092DD0110922C0210924E0247
:1016E0000E94E2028CEA91E09093D1018093D001B4
:1016F0008DEA91E09093D3018093D201109213036D
:1017000080911903823018F098E09093130380932E
:10171000160362E370E080E090E00E946D0160914A
:101720001A038EE093E00E94970468EE73E080E075
:1017300090E00E946D0160E38EE093E00E940A0752
:10174000CBE4D6E4CE010197F1F760E38EE093E0BD
:101750000E940A072197F1F760E38EE093E00E9470
:101760000A0783E592E00197F1F760E28EE093E0EB
:101770000E940A0760911303606240E08EE093E0EC
:101780000E94230784E08093140340E06CE08EE025
:1017900093E00E94230740E061E08EE093E00E9426
:1017A00023078BE39FE10197F1F7809117038823CB
:1017B00021F060E080E00E943A0782E08093150308
:1017C00040E066E08EE093E00E94230740E062E0A4
:1017D0008EE093E00E9423078BE39FE10197F1F7EE
:1017E00088E080931A0360E08EE093E00E94970403
:1017F00060E081E00E943A078CE491E00E94BC0422
:1018000061E081E00E943A078AE591E00E94BC0411
:1018100068EE73E080E090E00E946D0161E081E09D
:101820000E943A0787E691E00E94BC048AE0C82E35
:10183000D12CE12CF12CC0E0D0E00AE010E0812CAA
:10184000912C54010E940D05860E971EA81EB91EEC
:1018500064E170E080E090E00E946D0101501109A8
:1018600089F7C501B401A70196010E94750F809107
:10187000060390910703A0910803B0910903490161
:101880005A01881A990AAA0ABB0AC501B4010E9422
:10189000400D20910A0330910B0340910C035091AD
:1018A0000D030E94CA0E4B015C0161E080E00E94C2
:1018B0003A0742E0C501B4010E94730784E791E052
:1018C0000E94BC0484E00E94B500892B91F40E9420
:1018D0000D056093060370930703809308039093AC
:1018E000090361E080E00E943A078AE791E00E94E4
:1018F000BC0489E00E94B500892B09F05FC06091AB
:1019000000017091010165507109709301016093AC
:101910000001072E000C880B990B0E94400D60936C
:101920000A0370930B0380930C0390930D0361E003
:1019300080E00E943A070E940D0500910603109175
:1019400007032091080330910903601B710B820B80
:10195000930B0E94400D20910A0330910B0340919C
:101960000C0350910D030E94CA0E42E00E947307BF
:1019700084E791E00E94BC0468EC70E080E090E0B5
:101980000E946D01B6CF809100038093FF021092F8
:10199000DE011092DD0110922C0210924E020E9484
:1019A000E2028CEA91E09093D1018093D0018DEA1C
:1019B00091E09093D3018093D2016ECE88E00E9493
:1019C000B500892B09F044C06091000170910101BC
:1019D0006B5F7F4F7093010160930001072E000C35
:1019E000880B990B0E94400D60930A0370930B03C0
:1019F00080930C0390930D0361E080E00E943A070E
:101A00000E940D0500910603109107032091080321
:101A100030910903601B710B820B930B0E94400DE8
:101A200020910A0330910B0340910C0350910D0358
:101A30000E94CA0E42E00E94730784E791E00E9470
:101A4000BC0468EC70E080E090E00E946D01B6CFCD
:101A500062E370E080E090E00E946D01209709F45D
:101A6000ECCE0E941802882309F4E7CE0E94000001
:101A7000E4CE0E947B0D08F481E00895E89409C04B
:101A800097FB3EF490958095709561957F4F8F4FB1
:101A90009F4F9923A9F0F92F96E9BB279395F695C7
:101AA000879577956795B795F111F8CFFAF4BB0F45
:101AB00011F460FF1BC06F5F7F4F8F4F9F4F16C0A9
:101AC000882311F096E911C0772321F09EE8872F33
:101AD000762F05C0662371F096E8862F70E060E0EF
:101AE0002AF09A95660F771F881FDAF7880F969568
:101AF000879597F90895990F0008550FAA0BE0E80C
:101B0000FEEF16161706E807F907C0F012161306BF
:101B1000E407F50798F0621B730B840B950B39F4FF
:101B20000A2661F0232B242B252B21F408950A2665
:101B300009F4A140A6958FEF811D811D08950E9493
:101B4000B20D0C94230E0E94150E38F00E941C0E4C
:101B500020F0952311F00C940C0E0C94120E11240D
:101B60000C94570E0E94340E70F3959FC1F3950F9D
:101B700050E0551F629FF001729FBB27F00DB11D11
:101B8000639FAA27F00DB11DAA1F649F6627B00DA1
:101B9000A11D661F829F2227B00DA11D621F739F8A
:101BA000B00DA11D621F839FA00D611D221F749F98
:101BB0003327A00D611D231F849F600D211D822FDF
:101BC000762F6A2F11249F5750409AF0F1F0882306
:101BD0004AF0EE0FFF1FBB1F661F771F881F915033
:101BE0005040A9F79E3F510580F00C940C0E0C94C8
:101BF000570E5F3FE4F3983ED4F38695779567954B
:101C0000B795F795E7959F5FC1F7FE2B880F911D5C
:101C10009695879597F9089597F99F6780E870E002
:101C200060E008959FEF80EC089500240A94161652
:101C3000170618060906089500240A9412161306BA
:101C4000140605060895092E0394000C11F4882348
:101C500052F0BB0F40F4BF2B11F460FF04C06F5F64
:101C60007F4F8F4F9F4F089557FD9058440F551F3A
:101C700059F05F3F71F04795880F97FB991F61F00E
:101C80009F3F79F087950895121613061406551F85
:101C9000F2CF4695F1DF08C0161617061806991FF1
:101CA000F1CF86957105610508940895E894BB27E6
:101CB00066277727CB0197F908955058BB27AA27A5
:101CC0000E94750E0C94230E0E94150E38F00E948F
:101CD0001C0E20F039F49F3F19F426F40C94120ED8
:101CE0000EF4E095E7FB0C940C0EE92F0E94340EE5
:101CF00058F3BA17620773078407950720F079F441
:101D0000A6F50C94560E0EF4E0950B2EBA2FA02DCE
:101D10000B01B90190010C01CA01A0011124FF2798
:101D2000591B99F0593F50F4503E68F11A16F04093
:101D3000A22F232F342F4427585FF3CF4695379592
:101D40002795A795F0405395C9F77EF41F16BA0B57
:101D5000620B730B840BBAF09150A1F0FF0FBB1F05
:101D6000661F771F881FC2F70EC0BA0F621F731F4E
:101D7000841F48F4879577956795B795F7959E3FAB
:101D800008F0B0CF9395880F08F09927EE0F97953C
:101D9000879508950E94DE0E0C94230E0E941C0E5F
:101DA00058F00E94150E40F029F45F3F29F00C9482
:101DB0000C0E51110C94570E0C94120E0E94340EFE
:101DC00068F39923B1F3552391F3951B550BBB276A
:101DD000AA2762177307840738F09F5F5F4F220FAF
:101DE000331F441FAA1FA9F335D00E2E3AF0E0E8A6
:101DF00032D091505040E695001CCAF72BD0FE2FF0
:101E000029D0660F771F881FBB1F26173707480783
:101E1000AB07B0E809F0BB0B802DBF01FF2793583B
:101E20005F4F3AF09E3F510578F00C940C0E0C94E5
:101E3000570E5F3FE4F3983ED4F386957795679508
:101E4000B795F7959F5FC9F7880F911D9695879570
:101E500097F90895E1E0660F771F881FBB1F62178F
:101E600073078407BA0720F0621B730B840BBA0B4D
:101E7000EE1F88F7E09508950E943C0E88F09F576A
:101E800098F0B92F9927B751B0F0E1F0660F771F9E
:101E9000881F991F1AF0BA95C9F714C0B13091F094
:101EA0000E94560EB1E008950C94560E672F782FBD
:101EB0008827B85F39F0B93FCCF386957795679559
:101EC000B395D9F73EF490958095709561957F4FC5
:101ED0008F4F9F4F08950E947B0D08F48FEF089558
:101EE0000E947B0D880B990B0895A1E21A2EAA1B64
:101EF000BB1BFD010DC0AA1FBB1FEE1FFF1FA217BA
:101F0000B307E407F50720F0A21BB30BE40BF50BB6
:101F1000661F771F881F991F1A9469F7609570953F
:101F2000809590959B01AC01BD01CF010895692773
:101F3000962769277827872778270895EE0FFF1FB0
:101F40000590F491E02D099481E090E0F8940C94D0
:101F5000A90FF894FFCFA401000040001400540022
:101F6000000000004E02AE01DB019B020C02EA0100
:101F7000FE010000000068043B04AC0411043404BA
:101F80002104120400000000AF04000000006D07EF
:101F9000AE01AC04AB046E616E00696E66006F76D4
:101FA00066004469676974616C205363616C650005
:101FB000534F494354202D2048555354002020208E
:101FC000202020202020202020006B6720202000BF
:101FD00020546172696E672020202020202020205C
:021FE0000000FF
:107E0000112484B714BE81FFF0D085E080938100F7
:107E100082E08093C00088E18093C10086E0809377
:107E2000C20080E18093C4008EE0C9D0259A86E02C
:107E300020E33CEF91E0309385002093840096BBD3
:107E4000B09BFECF1D9AA8958150A9F7CC24DD24C4
:107E500088248394B5E0AB2EA1E19A2EF3E0BF2EE7
:107E6000A2D0813461F49FD0082FAFD0023811F036
:107E7000013811F484E001C083E08DD089C08234E0
:107E800011F484E103C0853419F485E0A6D080C0E4
:107E9000853579F488D0E82EFF2485D0082F10E0AE
:107EA000102F00270E291F29000F111F8ED06801E7
:107EB0006FC0863521F484E090D080E0DECF843638
:107EC00009F040C070D06FD0082F6DD080E0C81688
:107ED00080E7D80618F4F601B7BEE895C0E0D1E017
:107EE00062D089930C17E1F7F0E0CF16F0E7DF06D8
:107EF00018F0F601B7BEE89568D007B600FCFDCFD4
:107F0000A601A0E0B1E02C9130E011968C91119780
:107F100090E0982F8827822B932B1296FA010C0160
:107F200087BEE89511244E5F5F4FF1E0A038BF0790
:107F300051F7F601A7BEE89507B600FCFDCF97BE46
:107F4000E89526C08437B1F42ED02DD0F82E2BD052
:107F50003CD0F601EF2C8F010F5F1F4F84911BD097
:107F6000EA94F801C1F70894C11CD11CFA94CF0C13
:107F7000D11C0EC0853739F428D08EE10CD085E9AC
:107F80000AD08FE07ACF813511F488E018D01DD067
:107F900080E101D065CF982F8091C00085FFFCCF94
:107FA0009093C60008958091C00087FFFCCF809118
:107FB000C00084FD01C0A8958091C6000895E0E648
:107FC000F0E098E1908380830895EDDF803219F02E
:107FD00088E0F5DFFFCF84E1DECF1F93182FE3DFCA
:107FE0001150E9F7F2DF1F91089580E0E8DFEE27F6
:047FF000FF270994CA
:027FFE00040479
:00000001FF
